:020000020000FC
:1000000008E00EBF0FE50DBF0FEF01BB0FEF04BB04
:1000100040E050E060E070E080E038C099B390309C
:10002000D9F400C00E9463008A3081F580E00E940C
:1000300065004A3059F540E00E9467005A3031F5BA
:1000400050E00E9469006A3009F560E00E946B0090
:100050007A30E1F470E01AC00E946D008F3FB1F475
:1000600089E00E946F004F3F89F449E00E947100CF
:100070005F3F61F459E00E9473006F3F39F469E01B
:100080000E9475007F3F11F479E000C007EF02BBCA
:10009000142F0E9477000E94AA000BEF02BB152FBD
:1000A0000E9477000E94AA000DEF02BB162F0E944B
:1000B00077000E94AA000EEF02BB172F0E94770064
:1000C0000E94AA00ABCF8395089543950895539558
:1000D000089563950895739508958A9508954A95AE
:1000E00008955A9508956A9508957A95089510305F
:1000F00019F42FE325BB0895113019F426E025BB30
:100100000895123019F42BE525BB0895133019F426
:100110002FE425BB0895143019F426E625BB089575
:10012000153019F42DE625BB0895163019F42DE786
:1001300025BB0895173019F427E025BB0895183022
:1001400019F42FE725BB0895193019F42FE625BBC4
:1001500008950895EFEFD4E1DA95F1F7EA95D9F72C
:02016000089500
:00000001FF
